S05C0000433A5C446F63756D656E747320616E642053657474696E67735C4F776E65725C4465736B746F705C53594E435C4F746865722050726F6A656374735C50726F6A65637420312E302E315C62696E5C50726F6A6563742E616273E9
S123C000FEC033FDC031270E35ED31EC3169700434FB310326F2FEC035EC31270BED3118C8
S123C0200A30700434F920F13DCF210007D206C1140001C037C1462100000200000000000D
S123C04000000020496E7465727275707420414443202121200020496E7465727275707498
S123C0602021212000C6F07B02421C0240101C0240201D0240401C0240803D6BADC60187B9
S123C0806C81200B1887088EEA6023FA186281E68087AC8124EE1B833D1C02C2801D02C2A5
S123C0A0401C02C2021C02C3401C02C4801D02C4601D02C41F1D02C5801C02C5101D02C557
S123C0C0203DC60D5BC97900CA535BCB3DB74520063416C0DC3008E60026F63D5BCF4FCC4B
S123C0E040FC3D10EF4D1E40C6A07B025E3D0B1C02C680F60240C8207B0240CCC04307CDAC
S123C1000BC6207B025FB6024088807A0240CCC05607BA0B16C0C207CA16C06516C099FCD5
S123C120210016C12CC60A16C07B20F33BE6807B031EE6816B806981EC80B701876C80E6AD
S10BC140817B031F3A3D00005E
S123FF10C0EEC0EEC0EEC0EEC0EEC0EEC0EEC0EEC0EEC0EEC0EEC0EEC0EEC0EEC0EEC0EEED
S123FF30C0EEC0EEC0EEC0EEC0EEC0EEC0EEC0EEC0EEC0EEC0EEC0EEC0EEC0EEC0EEC0EECD
S123FF50C0EEC0EEC0EEC0EEC0EEC0EEC0EEC0EEC0EEC0EEC0EEC0EEC0EEC0EEC0EEC0EEAD
S123FF70C0EEC0EEC0EEC0EEC0EEC0EEC0EEC0EEC0EEC0EEC0EEC0EEC0EEC0EEC0EEC10179
S123FF90C0EEC0EEC0EEC0EEC0EEC0EEC0EEC0EEC0EEC0EEC0EEC0EEC0EEC0EEC0EEC0EE6D
S123FFB0C0EEC0EEC0EEC0EEC0EEC0EEC0EEC0EEC0EEC0EEC0EEC0EEC0EEC0EEC0EEC0EE4D
S123FFD0C0EEC0EFC0EEC0EEC0EEC0EEC0EEC0EEC0EEC0EEC0EEC0EEC0EEC0EEC0EEC0EE2C
S10DFFF0C0EEC0EEC0EEC0EEC0EE9D
S105FFFEC02914
S9030000FC
